:1000000071C0000049C1000056C100008AC0000054
:1000100088C0000086C0000084C0000082C00000CC
:1000200080C000007EC000007CC000007AC00000DC
:1000300078C00000AFC3000074C0000072C00000B0
:1000400070C000006EC000006CC000006AC00000FC
:1000500068C0000066C0000064C00000C7C30000A4
:1000600060C0000029C400005CC000005AC000004D
:1000700058C000007FC0000054C0000052C0000003
:1000800050C000004EC000004CC000004AC000003C
:1000900048C0000046C0000044C0000042C000004C
:1000A00040C000003EC000003CC000003AC000005C
:1000B00038C0000036C0000034C0000032C000006C
:1000C00030C000002EC000002CC000002AC000007C
:1000D00028C0000026C0000024C0000022C000008C
:1000E00020C0000011241FBECFEFD1E2DEBFCDBF84
:1000F00000E00CBF12E0A0E0B2E0E0E7FEE000E0CC
:100100000BBF02C007900D92A231B107D9F722E0D0
:10011000A2E1B2E001C01D92A338B207E1F73BD1E2
:10012000A5C66ECFCF93DF93EAE7F0E080818760CA
:100130008083ACE7B0E08C9180648C938C918F7756
:100140008C9383E080937E008081806880838081AF
:1001500088608083CBE7D0E0888184608883808159
:100160008062808380818064808380E48C93DF91CF
:10017000CF9108951F920F920FB60F9211248F9373
:100180009F9381E080931402809178009091790090
:1001900090931302809312029F918F910F900FBE44
:1001A0000F901F901895269AE0E8F0E08081806219
:1001B000808324E12093810081E792E0909387007F
:1001C0008093860062E370E070938B0060938A00F6
:1001D0004DE250E06B9AE0E9F0E030813068308326
:1001E00020939100909397008093960070939900CC
:1001F00060939800E1E0F1E0308130623083E0EA22
:10020000F0E03081386030832093A1009093A70004
:100210008093A6005093AD004093AC00EAE0F1E07B
:10022000308138603083E0E2F1E030813068308343
:100230002093210190932701809326015093290157
:10024000409328010895813031F050F0823069F0F8
:10025000833081F0089570938B0060938A00089535
:10026000709399006093980008957093AD00609327
:10027000AC00089570932901609328010895589A5D
:10028000E9E6F0E0808182608083E89A599A808173
:1002900088608083E99A08951F920F920FB60F929B
:1002A00011248F9381E0809315028F910F900FBEE0
:1002B0000F901F9018951F920F920FB60F92112456
:1002C0008F9381E0809316028F910F900FBE0F9055
:1002D0001F9018958F929F92AF92BF92CF92DF920C
:1002E000EF92FF921F93CF93DF936C014A015B0162
:1002F000CB01BA01E4D3DC01CB01EC014AE0B60149
:1003000082D5F60101900020E9F731977F01EC18C2
:10031000FD0811E01E0DFF24F601EE0DFF1D8CE21D
:10032000808383E0E80EF11C812F90E08E159F05FD
:1003300034F5BE01DD0F880B990BF4D39B01AC01A2
:10034000C501B401EFD220E030E040E251E476D4C0
:100350004B015C01B4D3DC01CB01EC014AE060E06D
:1003600070E051D521E0210F80910000F601E10FEE
:10037000F11D8083122F30E02E153F05D4F2DF915E
:10038000CF911F91FF90EF90DF90CF90BF90AF90F3
:100390009F908F900895CF93DF93CDB7DEB7669788
:1003A0000FB6F894DEBF0FBECDBFFDDEBBDE87E625
:1003B00090E040D2D3D17AD262DF7894F12C1E86BD
:1003C0000F2EF7EF4F2E55245394F02D0F2EFDEFE7
:1003D0002F2E33243394F02D0F2EFAE18F2EF2E0DE
:1003E0009F2EF02D2DE230E0388B2F8782E390E0B6
:1003F0009E8B8D8BE2E3F0E0FC8BEB8B3A8B298BB1
:10040000EE24E394612C712CCE0107969D878C8796
:100410008E010F5F1F4F809100028111E1C080911A
:100420001402813059F510921402ECE7F0E080815B
:10043000803451F4809012029090130220E42083C3
:100440008081826080831AC0ECE7F0E08081823492
:1004500051F4409012025090130220E420838081D6
:10046000836080830BC0ECE7F0E08081833431F45B
:10047000209012023090130220E420838091150214
:10048000813021F080911602813049F58091160269
:100490002091150290E0821B9109E989FA898E0F5B
:1004A0009F1F883191054CF09A8B898BC79744F038
:1004B00026E330E03A8B298B03C038E1398B1A8A66
:1004C00069897A8983E0BFDE499910921602489BB8
:1004D00009C010921502CC24C394D12C06C0C62C9E
:1004E000D72C03C0CC24C394D12CC4018751924093
:1004F0005C0122F4AA24BB24A81AB90AEBE0AE16C8
:10050000B10424F1B501FDD38F859889861B970B23
:100510008231910554F0988B8F878C34910544F08B
:100520002BE430E0388B2F8703C032E13F87188AF5
:100530006F85788982E087DEC50166E970E0E1D3E6
:1005400084E090E0861B970BC80ED91EC1018D5F19
:1005500091405C0122F4AA24BB24A81AB90AEBE05A
:10056000AE16B104ACF0B501CCD32B893C89261B67
:10057000370B3C8B2B8BB9018E2D65DEC50166E9EF
:1005800070E0BFD385E090E0861B970BC80ED91EA4
:10059000C201875F91405C0122F4AA24BB24A81AFF
:1005A000B90A3BE0A316B104ACF0B501AAD38D891A
:1005B0009E89861B970B9E8B8D8BBC0180E043DE52
:1005C000C50166E970E09DD385E090E0861B970B3E
:1005D000C80ED91ED0920202C0920102E09200021F
:1005E00080911E028130B9F510921E02EC85FD85C6
:1005F00001900020E9F73197AF012C853D85421B22
:10060000530B662D772DCE010796EFD36FE172E085
:10061000CE010796F1D3EFE1F2E001900020E9F777
:100620003197AF014F515240662D772D8FE192E007
:10063000DCD33F813E879B85905389858053E4E6D8
:100640008E9F900D11248A85880F8056F82EFF0CFE
:10065000FF0CF80EF90EFE85F734C9F0F23509F0FB
:1006600048C02F2D30E0A9E3B0E07AD324E630E093
:1006700040E050E059D3CA01B9016E5E7F4F8F4F01
:100680009F4F788B6F8782E0DEDD1E8632C08F2D14
:1006900090E0A0E0B0E0AC01BD01440F551F661F23
:1006A000771F480F591F6A1F7B1FDB01CA01880F84
:1006B000991FAA1FBB1F880F991FAA1FBB1F840F5A
:1006C000951FA61FB71FBC01CD01660F771F881F9E
:1006D000991F24E630E040E050E026D3CA01B9017A
:1006E000685E7F4F8F4F9F4F7A8B698B83E0ABDDC6
:1006F0001E86F80101900020E9F73197AF01401BF9
:10070000510B662D772DC80170D3B401092C000C54
:10071000880B990B07D220E030E040EA50E48ED2FB
:1007200020E030EC4FE754E462D120E030E0A90152
:10073000FAD0AB01BC01C801CDDD80911B02813034
:1007400009F069CE83E092E08FD0C8018DD086E5B4
:1007500083D08DE081D010921B025DCEE1EBF0E002
:100760008081886080838081876080838CE780932C
:10077000B300E0E7F0E080818260808384B5886028
:1007800084BD85B5856085BDEEE6F0E08081816041
:10079000808308951F920F920FB60F9211242F930A
:1007A0003F938F939F932091190230911A02809169
:1007B0000102909102022817390734F010920002CA
:1007C00010921A02109219028091190290911A0245
:1007D000019690931A02809319029F918F913F91F5
:1007E0002F910F900FBE0F901F9018951F920F9290
:1007F0000FB60F9211248F939F93809117029091BF
:10080000180208973CF081E080931B0210921802B6
:1008100010921702809117029091180201969093FE
:100820001802809317029F918F910F900FBE0F9027
:100830001F9018951092C5008093C40082E08093A9
:10084000C000E1ECF0E0808188618083E2ECF0E0C0
:100850008081866080830895E0ECF0E0908195FFD0
:10086000FDCF8093C6000895EF92FF920F931F93E0
:10087000CF93DF93FC0101900020E9F79F01281B33
:10088000390B8C01C0E0D0E0C90102977C01F8016E
:1008900081918F01E1DF2196EC16FD06C4F7DF910F
:1008A000CF911F910F91FF90EF900895E1ECF0E050
:1008B00080818068808308951F920F920FB60F92F7
:1008C00011240BB60F922F938F939F93AF93BF93E7
:1008D000EF93FF9380911C0290911D02E6ECF0E0F3
:1008E0002081DC01A15EBD4F2C93019690931D02E7
:1008F00080931C0280818D3039F481E080931E0248
:1009000010921D0210921C02FF91EF91BF91AF91C6
:100910009F918F912F910F900BBE0F900FBE0F9054
:100920001F9018955058BB27AA270ED04DC13ED115
:1009300030F043D120F031F49F3F11F41EF433C165
:100940000EF4E095E7FB29C1E92F4FD180F3BA17E8
:10095000620773078407950718F071F49EF567C165
:100960000EF4E0950B2EBA2FA02D0B01B9019001CA
:100970000C01CA01A0011124FF27591B99F0593F0E
:1009800050F4503E68F11A16F040A22F232F342F56
:100990004427585FF3CF469537952795A795F040A4
:1009A0005395C9F77EF41F16BA0B620B730B840BB9
:1009B000BAF09150A1F0FF0FBB1F661F771F881F71
:1009C000C2F70EC0BA0F621F731F841F48F48795C9
:1009D00077956795B795F7959E3F08F0B3CF9395B8
:1009E000880F08F09927EE0F9795879508950CD0FA
:1009F000EBC0E3D040F0DAD030F021F45F3F19F0E3
:100A0000CCC0511115C1CFC0F0D098F39923C9F3D0
:100A10005523B1F3951B550BBB27AA276217730704
:100A2000840738F09F5F5F4F220F331F441FAA1FB8
:100A3000A9F333D00E2E3AF0E0E830D09150504078
:100A4000E695001CCAF729D0FE2F27D0660F771F26
:100A5000881FBB1F261737074807AB07B0E809F008
:100A6000BB0B802DBF01FF2793585F4F2AF09E3F9D
:100A7000510568F092C0DCC05F3FECF3983EDCF3B8
:100A8000869577956795B795F7959F5FC9F7880F16
:100A9000911D9695879597F90895E1E0660F771F68
:100AA000881FBB1F621773078407BA0720F0621BF9
:100AB000730B840BBA0BEE1F88F7E095089504D0F2
:100AC0006894B111B5C0089598D088F09F5790F000
:100AD000B92F9927B751A0F0D1F0660F771F881F63
:100AE000991F1AF0BA95C9F712C0B13081F09FD0A2
:100AF000B1E008959CC0672F782F8827B85F39F040
:100B0000B93FCCF3869577956795B395D9F73EF4C1
:100B100090958095709561957F4F8F4F9F4F089569
:100B2000E89409C097FB3EF4909580957095619587
:100B30007F4F8F4F9F4F9923A9F0F92F96E9BB273D
:100B40009395F695879577956795B795F111F8CFB9
:100B5000FAF4BB0F11F460FF1BC06F5F7F4F8F4F24
:100B60009F4F16C0882311F096E911C0772321F01A
:100B70009EE8872F762F05C0662371F096E8862FB2
:100B800070E060E02AF09A95660F771F881FDAF709
:100B9000880F9695879597F9089597F99F6780E84C
:100BA00070E060E008959FEF80EC089500240A94BF
:100BB0001616170618060906089500240A94121638
:100BC0001306140605060895092E0394000C11F46B
:100BD000882352F0BB0F40F4BF2B11F460FF04C018
:100BE0006F5F7F4F8F4F9F4F089557FD9058440F71
:100BF000551F59F05F3F71F04795880F97FB991F7C
:100C000061F09F3F79F08795089512161306140638
:100C1000551FF2CF4695F1DF08C0161617061806C5
:100C2000991FF1CF86957105610508940895E894A0
:100C3000BB2766277727CB0197F908950BD0C4CF40
:100C4000B5DF28F0BADF18F0952309F0A6CFABCFB7
:100C50001124EECFCADFA0F3959FD1F3950F50E09A
:100C6000551F629FF001729FBB27F00DB11D639F5E
:100C7000AA27F00DB11DAA1F649F6627B00DA11D04
:100C8000661F829F2227B00DA11D621F739FB00DAA
:100C9000A11D621F839FA00D611D221F749F33271A
:100CA000A00D611D231F849F600D211D822F762FB3
:100CB0006A2F11249F5750408AF0E1F088234AF0B0
:100CC000EE0FFF1FBB1F661F771F881F91505040FC
:100CD000A9F79E3F510570F060CFAACF5F3FECF3BC
:100CE000983EDCF3869577956795B795F795E795E8
:100CF0009F5FC1F7FE2B880F911D9695879597F9F9
:100D0000089597FB072E16F4009406D077FD08D0BF
:100D100036D007FC05D03EF4909581959F4F0895FD
:100D2000709561957F4F0895052E97FB16F40094FA
:100D30000FD057FD05D037D007FC02D046F408C0CD
:100D400050954095309521953F4F4F4F5F4F0895F7
:100D500090958095709561957F4F8F4F9F4F089527
:100D6000A29FB001B39FC001A39F700D811D1124EC
:100D7000911DB29F700D811D1124911D0895AA1B14
:100D8000BB1B51E107C0AA1FBB1FA617B70710F076
:100D9000A61BB70B881F991F5A95A9F780959095A8
:100DA000BC01CD010895A1E21A2EAA1BBB1BFD01B7
:100DB0000DC0AA1FBB1FEE1FFF1FA217B307E4073A
:100DC000F50720F0A21BB30BE40BF50B661F771F92
:100DD000881F991F1A9469F7609570958095909572
:100DE0009B01AC01BD01CF010895DC0101C06D93F1
:100DF00041505040E0F70895FB01DC0101900D9255
:100E00000020E1F70895BB274A3031F4992322F4FA
:100E1000BDE2909581959F4F01C0BB27FB015527EF
:100E2000AA27880F991FAA1FA41710F0A41B839547
:100E30005051B9F7A05DAA3308F0A95DA1930097BE
:100E400079F7B111B1931192CB0100C0DC01FC0123
:100E5000672F71917723E1F7329704C07C916D93EE
:100E600070836291AE17BF07C8F30895F894FFCF5F
:100E7000014600526F746174652070696E203D20D8
:020E8000000070
:00000001FF
